S00E0000546865726D6F2E73726563A7
S113000012C02CC08CC12AC029C028C027C026C059
S113001025C024C023C022C021C020C0DCC21EC011
S11300201DC01CC01BC011241FBECFE5D4E0DEBF21
S1130030CDBF10E0A0E6B0E0ECEEF8E002C0059021
S11300400D92A236B107D9F720E0A2E6B0E001C0D4
S11300501D92A038B207E1F7D8D246C4D1CF959803
S11300608D9A8BED95E00197F1F700C000008D9813
S1130070EFEEF0E03197F1F700C0000080B3EBED54
S1130080F5E03197F1F700C0000085FB882780F97F
S113009091E0892781950895F89420E030E090E07C
S11300A0AC01022E02C0559547950A94E2F740FF31
S11300B009C08D9A48E24A95F1F78D98ECEDEA95DE
S11300C0F1F70BC08D9AE2ECF0E03197F1F700C044
S11300D000008D98F4E1FA95F1F72F5F3F4F283037
S11300E03105F1F678940895F89420E030E080E04A
S11300F061E070E08D9A9CE09A95F1F78D9898E212
S11301009A95F1F7859B08C0AB01022E02C0440FFB
S1130110551F0A94E2F7842B98EC9A95F1F72F5F18
S11301203F4F2830310531F778940895CF93DF930A
S113013096DF882361F18CECAFDF84E4ADDF2FEF31
S11301408EE994E2215080409040E1F700C0000025
S113015086DF8CECA1DF8EEB9FDFC6DFC82FD0E0FB
S1130160C3DF282F30E0322F22272C0F3D1FC90177
S1130170880F991F220F331F220F331F220F331FA3
S1130180820F931F60EA70E088D3CB0102C080E045
S113019090E0DF91CF910895882311F0AB9A01C0CC
S11301A0AB9884E08A95F1F7AC9A84E08A95F1F7EC
S11301B0AC9808950F931F93CF93DF93EC01AD9800
S11301C0613019F06230E1F179C01092650010924B
S11301D064000BE110E0081B190B91F080E0DCDFF8
S11301E080916400909165000196909365008093DE
S11301F064008017910790F31092650010926400D8
S113020081E0CADF8091640090916500019690932B
S1130210650080936400C817D90790F710926500B1
S11302201092640080E0B8DF8091640090916500D2
S1130230019690936500809364004A979CF369C08B
S1130240109265001092640080E0A6DF8091640043
S113025090916500019690936500809364004A979D
S11302609CF3109265001092640081E095DF809108
S113027064009091650001969093650080936400FA
S1130280C817D90790F710926500109264008AE1AC
S113029090E09C012C1B3D0BE9012097D1F180E0FB
S11302A07BDF8091640090916500019690936500D6
S11302B0809364008C179D0790F32BC01092650007
S11302C01092640005E310E0081B190B71F080E044
S11302D063DF8091640090916500019690936500BE
S11302E0809364008017910790F310926500109238
S11302F06400209771F081E04FDF80916400909159
S11303006500019690936500809364008C179D07A7
S113031090F3AD9ADF91CF911F910F9108951F92A1
S11303200F920FB60F9211242F933F934F935F9325
S11303306F937F938F939F93AF93BF93EF93FF93A9
S11303408BB78F778BBFF2DE99230CF401969595CA
S113035087959093630080936200209160003091B0
S113036061002F5F3F4F309361002093600061E094
S113037021DF809162009091630099234CF121E088
S113038030E030937F0020937E00181619060CF09D
S11303904CC061E0821B930B0DDF2FE389E191E0F8
S11303A0215080409040E1F700C0000020917E0081
S11303B030917F002F5F3F4F30937F0020937E006A
S11303C080916200909163008217930714F72DC007
S11303D021E030E030937F0020937E009195819559
S11303E09109181619060CF562E0821B930BE2DEE4
S11303F02FE389E191E0215080409040E1F700C073
S1130400000020917E0030917F002F5F3F4F30939A
S11304107F0020937E00809162009091630091950B
S11304208195910982179307FCF610927F00109230
S11304307E0080916000909161009923ECF080E04F
S113044090E060E0B7DE2FE389E191E02150804045
S11304509040E1F700C0000080917E0090917F0001
S1130460019690937F0080937E00209160003091EC
S11304706100281739072CF72FEF8DE399E42150F9
S113048080409040E1F700C0000081E090E090934C
S11304907F0080937E008091600090916100181627
S11304A019060CF080C021E030E060E0821B930B61
S11304B081DE2FE389E191E0215080409040E1F713
S11304C000C0000020917E0030917F002F5F3F4FDD
S11304D030937F0020937E008091600090916100B2
S11304E08217930714F78091620090916300992317
S11304F014F110927F0010927E0080E090E061E0A1
S113050059DE2FE389E191E0215080409040E1F7EA
S113051000C0000080917E0090917F00019690932E
S11305207F0080937E002091620030916300281741
S113053039072CF72CC021E030E030937F00209362
S11305407E009195819591091816190604F581E0AC
S113055090E062E02FDE2FE389E191E021508040BA
S11305609040E1F700C0000080917E0090917F00F0
S1130570019690937F0080937E00209162003091D9
S113058063003195219531092817390714F78AB783
S113059080688ABF8BB780688BBF0CC010927F00C5
S11305A010927E00AACF80916200909163009923FB
S11305B0ACF7C1CFFF91EF91BF91AF919F918F9114
S11305C07F916F915F914F913F912F910F900FBE4B
S11305D00F901F9018951F920F920FB60F9211242F
S11305E02F938F939F9324B185B190E0982F882700
S11305F0820F911D99BD88BD349A9F918F912F913F
S11306000F900FBE0F901F901895F894B89AC09A47
S1130610B99AC1988B9A939A2FE73FE482E12150CB
S113062030408040E1F700C00000839939C0C09891
S11306309FEB24ED31E0915020403040E1F700C0C1
S11306400000C09A8FEB94ED21E08150904020404F
S1130650E1F700C00000C0983FEB84ED91E0315019
S113066080409040E1F700C00000C09A2FEB34EDC9
S113067081E0215030408040E1F700C00000C09884
S11306809FEB27E239E0915020403040E1F700C071
S11306900000C09A8AE085BF80E88BBF80EC8ABFE7
S11306A0BA9AC29AC19A83E38FBD8AE08EBD8FEF56
S11306B093E099BD88BD80EC87B98EED86B984B38B
S11306C0886384BB85B3886285BBAC9881E064DDB4
S11306D060E080E090E06EDD8FE79FE422E18150EE
S11306E090402040E1F700C0000010927F0010927B
S11306F07E0080E090E060E05DDD3FE389E191E031
S1130700315080409040E1F700C0000080917E00AD
S113071090917F00019690937F0080937E008633B2
S113072091054CF39CDC882381F08CECB5DC8EE4E1
S1130730B3DC8FE1B1DC8FE1AFDC8FE1ADDCF6DC63
S1130740909363008093620001C0C098809162001E
S1130750909163009C01992314F42F5F3F4F3595CA
S1130760279530936300209362003323E4F11092C1
S11307707F0010927E0068E270E08FD08BE190E001
S1130780861B970B62F1E0E0F0E005E310E00F2E2A
S1130790F4E1EF2EF12CF02DCBE1D0E060E0C801C4
S11307A08E1B9F0B07DD8FE295E70197F1F700C0E1
S11307B00000E0917E00F0917F003196F0937F007D
S11307C0E0937E002091620030916300C901B7017B
S11307D064D0CE01861B970B8E179F07FCF661E051
S11307E0C901E8DC2AC0C09810927F0010927E00F4
S11307F080E090E0C5E3D0E060E09E01281B390B67
S1130800C901D8DC8FE295E70197F1F700C0000039
S113081080917E0090917F00019690937F00809359
S11308207E008A31910544F38091620090916300C7
S113083062E0919581959109BDDC7894C09876DC4D
S11308409093630080936200C09AAD9820916200F7
S11308503091630033234CF0C90199230CF40196C1
S113086061E095958795A6DC0BC0C90199230CF42A
S113087001969595879562E09195819591099ADC09
S1130880AD9A369AC0989FE72EEE36E391502040F9
S11308903040E1F700C00000D2CF97FB072E16F4DA
S11308A0009406D077FD08D00BD007FC05D03EF4A9
S11308B0909581959F4F0895709561957F4F089508
S11308C0AA1BBB1B51E107C0AA1FBB1FA617B70772
S11308D010F0A61BB70B881F991F5A95A9F780958E
S10F08E09095BC01CD010895F894FFCF61
S10508EC010005
S9030000FC
